:020000040000FA
:10000000A101A3016E30A0002D30A2003230A40067
:100010001430A30083128601831603138601831212
:10002000A501A601861421082002031D202823080B
:100030002202031D2A2886155120861153203828B4
:10004000831206140A30A10721082002031D20286C
:10005000061010280530A30706155120061151205F
:1000600006155120061123082202031D2A281028F4
:100070000616FB30A10721082402031D382853204F
:10008000831206121430A3001028FA30A5000000D5
:10009000A50B47280800FA30A6004520A60B4D28DE
:0E00A00008004B204B204B204B204B204B20C8
:0200AE0000341C
:0200B00000341A
:02400E00E13F90
:00000001FF
